{
  "contractName": "CrowdFunding",
  "abi": [
    {
      "inputs": [
        {
          "internalType": "uint256",
          "name": "_targetAmount",
          "type": "uint256"
        },
        {
          "internalType": "uint256",
          "name": "_deadline",
          "type": "uint256"
        }
      ],
      "stateMutability": "nonpayable",
      "type": "constructor"
    },
    {
      "inputs": [
        {
          "internalType": "address",
          "name": "",
          "type": "address"
        }
      ],
      "name": "contributors",
      "outputs": [
        {
          "internalType": "uint256",
          "name": "",
          "type": "uint256"
        }
      ],
      "stateMutability": "view",
      "type": "function",
      "constant": true
    },
    {
      "inputs": [],
      "name": "deadline",
      "outputs": [
        {
          "internalType": "uint256",
          "name": "",
          "type": "uint256"
        }
      ],
      "stateMutability": "view",
      "type": "function",
      "constant": true
    },
    {
      "inputs": [],
      "name": "manager",
      "outputs": [
        {
          "internalType": "address",
          "name": "",
          "type": "address"
        }
      ],
      "stateMutability": "view",
      "type": "function",
      "constant": true
    },
    {
      "inputs": [],
      "name": "minimumContribution",
      "outputs": [
        {
          "internalType": "uint256",
          "name": "",
          "type": "uint256"
        }
      ],
      "stateMutability": "view",
      "type": "function",
      "constant": true
    },
    {
      "inputs": [],
      "name": "raisedAmount",
      "outputs": [
        {
          "internalType": "uint256",
          "name": "",
          "type": "uint256"
        }
      ],
      "stateMutability": "view",
      "type": "function",
      "constant": true
    },
    {
      "inputs": [],
      "name": "requestNumber",
      "outputs": [
        {
          "internalType": "uint256",
          "name": "",
          "type": "uint256"
        }
      ],
      "stateMutability": "view",
      "type": "function",
      "constant": true
    },
    {
      "inputs": [
        {
          "internalType": "uint256",
          "name": "",
          "type": "uint256"
        }
      ],
      "name": "requests",
      "outputs": [
        {
          "internalType": "string",
          "name": "cause",
          "type": "string"
        },
        {
          "internalType": "uint256",
          "name": "value",
          "type": "uint256"
        },
        {
          "internalType": "address payable",
          "name": "recipient",
          "type": "address"
        },
        {
          "internalType": "bool",
          "name": "completed",
          "type": "bool"
        },
        {
          "internalType": "uint256",
          "name": "totalVoters",
          "type": "uint256"
        }
      ],
      "stateMutability": "view",
      "type": "function",
      "constant": true
    },
    {
      "inputs": [],
      "name": "target",
      "outputs": [
        {
          "internalType": "uint256",
          "name": "",
          "type": "uint256"
        }
      ],
      "stateMutability": "view",
      "type": "function",
      "constant": true
    },
    {
      "inputs": [],
      "name": "totalContibutors",
      "outputs": [
        {
          "internalType": "uint256",
          "name": "",
          "type": "uint256"
        }
      ],
      "stateMutability": "view",
      "type": "function",
      "constant": true
    },
    {
      "inputs": [],
      "name": "sendEther",
      "outputs": [],
      "stateMutability": "payable",
      "type": "function",
      "payable": true
    },
    {
      "inputs": [],
      "name": "getContractBalance",
      "outputs": [
        {
          "internalType": "uint256",
          "name": "",
          "type": "uint256"
        }
      ],
      "stateMutability": "view",
      "type": "function",
      "constant": true
    },
    {
      "inputs": [],
      "name": "refundEther",
      "outputs": [],
      "stateMutability": "nonpayable",
      "type": "function"
    },
    {
      "inputs": [
        {
          "internalType": "string",
          "name": "_cause",
          "type": "string"
        },
        {
          "internalType": "address payable",
          "name": "_recipient",
          "type": "address"
        },
        {
          "internalType": "uint256",
          "name": "_value",
          "type": "uint256"
        }
      ],
      "name": "createFundRequest",
      "outputs": [],
      "stateMutability": "nonpayable",
      "type": "function"
    },
    {
      "inputs": [
        {
          "internalType": "uint256",
          "name": "_requestNumber",
          "type": "uint256"
        }
      ],
      "name": "voteRequest",
      "outputs": [],
      "stateMutability": "nonpayable",
      "type": "function"
    },
    {
      "inputs": [
        {
          "internalType": "uint256",
          "name": "_requestNumber",
          "type": "uint256"
        }
      ],
      "name": "makePaymentToRecipient",
      "outputs": [],
      "stateMutability": "nonpayable",
      "type": "function"
    }
  ],
  "bytecode": "0x60806040523480156200001157600080fd5b50604051620018c4380380620018c48339818101604052810190620000379190620000ea565b81600481905550670de0b6b3a764000060028190555080426200005b919062000160565b60038190555033600160006101000a81548173ffffffffffffffffffffffffffffffffffffffff021916908373ffffffffffffffffffffffffffffffffffffffff1602179055505050620001bd565b600080fd5b6000819050919050565b620000c481620000af565b8114620000d057600080fd5b50565b600081519050620000e481620000b9565b92915050565b60008060408385031215620001045762000103620000aa565b5b60006200011485828601620000d3565b92505060206200012785828601620000d3565b9150509250929050565b7f4e487b7100000000000000000000000000000000000000000000000000000000600052601160045260246000fd5b60006200016d82620000af565b91506200017a83620000af565b9250827fffffffffffffffffffffffffffffffffffffffffffffffffffffffffffffffff03821115620001b257620001b162000131565b5b828201905092915050565b6116f780620001cd6000396000f3fe6080604052600436106100e85760003560e01c80636f9fb98a1161008a578063a77ede9511610059578063a77ede95146102b5578063c59ee1dc146102de578063cfd1a7e214610309578063d4b8399214610334576100e8565b80636f9fb98a146101f557806381d12c581461022057806384bc06f114610261578063937e09b11461028a576100e8565b806329dcb0cf116100c657806329dcb0cf1461015f578063481c6a751461018a5780634cb6f4a5146101b5578063560ed6a1146101de576100e8565b8063092476fc146100ed5780630e29df22146101185780631f6d494214610122575b600080fd5b3480156100f957600080fd5b5061010261035f565b60405161010f9190610d24565b60405180910390f35b610120610365565b005b34801561012e57600080fd5b5061014960048036038101906101449190610db1565b6104be565b6040516101569190610d24565b60405180910390f35b34801561016b57600080fd5b506101746104d6565b6040516101819190610d24565b60405180910390f35b34801561019657600080fd5b5061019f6104dc565b6040516101ac9190610ded565b60405180910390f35b3480156101c157600080fd5b506101dc60048036038101906101d79190610e34565b610502565b005b3480156101ea57600080fd5b506101f36106a7565b005b34801561020157600080fd5b5061020a610816565b6040516102179190610d24565b60405180910390f35b34801561022c57600080fd5b5061024760048036038101906102429190610e34565b61081e565b604051610258959493929190610f36565b60405180910390f35b34801561026d57600080fd5b50610288600480360381019061028391906110f1565b610909565b005b34801561029657600080fd5b5061029f610a5c565b6040516102ac9190610d24565b60405180910390f35b3480156102c157600080fd5b506102dc60048036038101906102d79190610e34565b610a62565b005b3480156102ea57600080fd5b506102f3610c56565b6040516103009190610d24565b60405180910390f35b34801561031557600080fd5b5061031e610c5c565b60405161032b9190610d24565b60405180910390f35b34801561034057600080fd5b50610349610c62565b6040516103569190610d24565b60405180910390f35b60065481565b60035442106103a9576040517f08c379a00000000000000000000000000000000000000000000000000000000081526004016103a0906111ac565b60405180910390fd5b6002543410156103ee576040517f08c379a00000000000000000000000000000000000000000000000000000000081526004016103e59061123e565b60405180910390fd5b60008060003373ffffffffffffffffffffffffffffffffffffffff1673ffffffffffffffffffffffffffffffffffffffff16815260200190815260200160002054141561044e57600660008154809291906104489061128d565b91905055505b346000803373ffffffffffffffffffffffffffffffffffffffff1673ffffffffffffffffffffffffffffffffffffffff168152602001908152602001600020600082825461049c91906112d6565b9250508190555034600560008282546104b591906112d6565b92505081905550565b60006020528060005260406000206000915090505481565b60035481565b600160009054906101000a900473ffffffffffffffffffffffffffffffffffffffff1681565b60008060003373ffffffffffffffffffffffffffffffffffffffff1673ffffffffffffffffffffffffffffffffffffffff1681526020019081526020016000205411610583576040517f08c379a000000000000000000000000000000000000000000000000000000000815260040161057a90611378565b60405180910390fd5b6000600760008381526020019081526020016000209050600015158160040160003373ffffffffffffffffffffffffffffffffffffffff1673ffffffffffffffffffffffffffffffffffffffff16815260200190815260200160002060009054906101000a900460ff1615151461062f576040517f08c379a0000000000000000000000000000000000000000000000000000000008152600401610626906113e4565b60405180910390fd5b60018160040160003373ffffffffffffffffffffffffffffffffffffffff1673ffffffffffffffffffffffffffffffffffffffff16815260200190815260200160002060006101000a81548160ff02191690831515021790555080600301600081548092919061069e9061128d565b91905055505050565b6004546005541080156106bb575060035442115b6106fa576040517f08c379a00000000000000000000000000000000000000000000000000000000081526004016106f190611476565b60405180910390fd5b60008060003373ffffffffffffffffffffffffffffffffffffffff1673ffffffffffffffffffffffffffffffffffffffff168152602001908152602001600020541161074557600080fd5b60003390508073ffffffffffffffffffffffffffffffffffffffff166108fc6000803373ffffffffffffffffffffffffffffffffffffffff1673ffffffffffffffffffffffffffffffffffffffff168152602001908152602001600020549081150290604051600060405180830381858888f193505050501580156107ce573d6000803e3d6000fd5b5060008060003373ffffffffffffffffffffffffffffffffffffffff1673ffffffffffffffffffffffffffffffffffffffff1681526020019081526020016000208190555050565b600047905090565b6007602052806000526040600020600091509050806000018054610841906114c5565b80601f016020809104026020016040519081016040528092919081815260200182805461086d906114c5565b80156108ba5780601f1061088f576101008083540402835291602001916108ba565b820191906000526020600020905b81548152906001019060200180831161089d57829003601f168201915b5050505050908060010154908060020160009054906101000a900473ffffffffffffffffffffffffffffffffffffffff16908060020160149054906101000a900460ff16908060030154905085565b600160009054906101000a900473ffffffffffffffffffffffffffffffffffffffff1673ffffffffffffffffffffffffffffffffffffffff163373ffffffffffffffffffffffffffffffffffffffff1614610999576040517f08c379a000000000000000000000000000000000000000000000000000000000815260040161099090611569565b60405180910390fd5b60006007600060085481526020019081526020016000209050600860008154809291906109c59061128d565b9190505550838160000190805190602001906109e2929190610c68565b50828160020160006101000a81548173ffffffffffffffffffffffffffffffffffffffff021916908373ffffffffffffffffffffffffffffffffffffffff16021790555081816001018190555060008160020160146101000a81548160ff0219169083151502179055506000816003018190555050505050565b60025481565b600160009054906101000a900473ffffffffffffffffffffffffffffffffffffffff1673ffffffffffffffffffffffffffffffffffffffff163373ffffffffffffffffffffffffffffffffffffffff1614610af2576040517f08c379a0000000000000000000000000000000000000000000000000000000008152600401610ae990611569565b60405180910390fd5b6004546005541015610b0357600080fd5b6000600760008381526020019081526020016000209050600015158160020160149054906101000a900460ff16151514610b72576040517f08c379a0000000000000000000000000000000000000000000000000000000008152600401610b69906115d5565b60405180910390fd5b6002600654610b819190611624565b816003015411610bc6576040517f08c379a0000000000000000000000000000000000000000000000000000000008152600401610bbd906116a1565b60405180910390fd5b8060020160009054906101000a900473ffffffffffffffffffffffffffffffffffffffff1673ffffffffffffffffffffffffffffffffffffffff166108fc82600101549081150290604051600060405180830381858888f19350505050158015610c34573d6000803e3d6000fd5b5060018160020160146101000a81548160ff0219169083151502179055505050565b60055481565b60085481565b60045481565b828054610c74906114c5565b90600052602060002090601f016020900481019282610c965760008555610cdd565b82601f10610caf57805160ff1916838001178555610cdd565b82800160010185558215610cdd579182015b82811115610cdc578251825591602001919060010190610cc1565b5b509050610cea9190610cee565b5090565b5b80821115610d07576000816000905550600101610cef565b5090565b6000819050919050565b610d1e81610d0b565b82525050565b6000602082019050610d396000830184610d15565b92915050565b6000604051905090565b600080fd5b600080fd5b600073ffffffffffffffffffffffffffffffffffffffff82169050919050565b6000610d7e82610d53565b9050919050565b610d8e81610d73565b8114610d9957600080fd5b50565b600081359050610dab81610d85565b92915050565b600060208284031215610dc757610dc6610d49565b5b6000610dd584828501610d9c565b91505092915050565b610de781610d73565b82525050565b6000602082019050610e026000830184610dde565b92915050565b610e1181610d0b565b8114610e1c57600080fd5b50565b600081359050610e2e81610e08565b92915050565b600060208284031215610e4a57610e49610d49565b5b6000610e5884828501610e1f565b91505092915050565b600081519050919050565b600082825260208201905092915050565b60005b83811015610e9b578082015181840152602081019050610e80565b83811115610eaa576000848401525b50505050565b6000601f19601f8301169050919050565b6000610ecc82610e61565b610ed68185610e6c565b9350610ee6818560208601610e7d565b610eef81610eb0565b840191505092915050565b6000610f0582610d53565b9050919050565b610f1581610efa565b82525050565b60008115159050919050565b610f3081610f1b565b82525050565b600060a0820190508181036000830152610f508188610ec1565b9050610f5f6020830187610d15565b610f6c6040830186610f0c565b610f796060830185610f27565b610f866080830184610d15565b9695505050505050565b600080fd5b600080fd5b7f4e487b7100000000000000000000000000000000000000000000000000000000600052604160045260246000fd5b610fd282610eb0565b810181811067ffffffffffffffff82111715610ff157610ff0610f9a565b5b80604052505050565b6000611004610d3f565b90506110108282610fc9565b919050565b600067ffffffffffffffff8211156110305761102f610f9a565b5b61103982610eb0565b9050602081019050919050565b82818337600083830152505050565b600061106861106384611015565b610ffa565b90508281526020810184848401111561108457611083610f95565b5b61108f848285611046565b509392505050565b600082601f8301126110ac576110ab610f90565b5b81356110bc848260208601611055565b91505092915050565b6110ce81610efa565b81146110d957600080fd5b50565b6000813590506110eb816110c5565b92915050565b60008060006060848603121561110a57611109610d49565b5b600084013567ffffffffffffffff81111561112857611127610d4e565b5b61113486828701611097565b9350506020611145868287016110dc565b925050604061115686828701610e1f565b9150509250925092565b7f536f7272792c20646561646c696e652068617320706173736564000000000000600082015250565b6000611196601a83610e6c565b91506111a182611160565b602082019050919050565b600060208201905081810360008301526111c581611189565b9050919050565b7f536f7272792c206d696e696d756d20636f6e747269627574696f6e206973206e60008201527f6f74206d65740000000000000000000000000000000000000000000000000000602082015250565b6000611228602683610e6c565b9150611233826111cc565b604082019050919050565b600060208201905081810360008301526112578161121b565b9050919050565b7f4e487b7100000000000000000000000000000000000000000000000000000000600052601160045260246000fd5b600061129882610d0b565b91507fffffffffffffffffffffffffffffffffffffffffffffffffffffffffffffffff8214156112cb576112ca61125e565b5b600182019050919050565b60006112e182610d0b565b91506112ec83610d0b565b9250827fffffffffffffffffffffffffffffffffffffffffffffffffffffffffffffffff038211156113215761132061125e565b5b828201905092915050565b7f596f7520617265206e6f7420656c6967696c6520666f7220766f74696e670000600082015250565b6000611362601e83610e6c565b915061136d8261132c565b602082019050919050565b6000602082019050818103600083015261139181611355565b9050919050565b7f596f75206861766520616c726561647920766f74656421000000000000000000600082015250565b60006113ce601783610e6c565b91506113d982611398565b602082019050919050565b600060208201905081810360008301526113fd816113c1565b9050919050565b7f596f7520617265206e6f7420656c696769626c6520666f7220726566756e646960008201527f6e67000000000000000000000000000000000000000000000000000000000000602082015250565b6000611460602283610e6c565b915061146b82611404565b604082019050919050565b6000602082019050818103600083015261148f81611453565b9050919050565b7f4e487b7100000000000000000000000000000000000000000000000000000000600052602260045260246000fd5b600060028204905060018216806114dd57607f821691505b602082108114156114f1576114f0611496565b5b50919050565b7f4f6e6c79206d616e616765722063616e2063616c6c20746869732066756e637460008201527f696f6e0000000000000000000000000000000000000000000000000000000000602082015250565b6000611553602383610e6c565b915061155e826114f7565b604082019050919050565b6000602082019050818103600083015261158281611546565b9050919050565b7f526563697069656e742068617320616c7265616479206265656e207061696400600082015250565b60006115bf601f83610e6c565b91506115ca82611589565b602082019050919050565b600060208201905081810360008301526115ee816115b2565b9050919050565b7f4e487b7100000000000000000000000000000000000000000000000000000000600052601260045260246000fd5b600061162f82610d0b565b915061163a83610d0b565b92508261164a576116496115f5565b5b828204905092915050565b7f4d616a6f7269747920737570706f7274206e6565646564000000000000000000600082015250565b600061168b601783610e6c565b915061169682611655565b602082019050919050565b600060208201905081810360008301526116ba8161167e565b905091905056fea2646970667358221220b93e386b1623423451ae1a87484e4884a63c6b017be19dfa1f0b928cb537173a64736f6c634300080a0033",
  "immutableReferences": {},
  "source": "// SPDX-License-Identifier: GPL-3.0\r\npragma solidity >=0.5.0 <0.9.0;\r\n\r\ncontract CrowdFunding{\r\n    mapping(address => uint) public contributors;\r\n    address public manager;\r\n    uint public minimumContribution;\r\n    uint public deadline;\r\n    uint public target;\r\n    uint public raisedAmount;\r\n    uint public totalContibutors;\r\n\r\n    //Structure to store funding information\r\n    struct Request {\r\n        string cause;\r\n        uint value;\r\n        address payable recipient;\r\n        bool completed;\r\n        uint totalVoters;\r\n        mapping(address => bool) voters;\r\n    }\r\n\r\n    mapping(uint => Request) public requests; //Struct variable to store multiple crowd funds & their details\r\n    uint public requestNumber;\r\n\r\n\r\n    constructor (uint _targetAmount, uint _deadline){\r\n        target = _targetAmount;\r\n        minimumContribution = 1 ether;\r\n        deadline = block.timestamp + _deadline;\r\n        manager = msg.sender;\r\n    }\r\n\r\n\r\n    //Function to help our contract receive payment\r\n    function sendEther() public payable {\r\n        require(block.timestamp < deadline, 'Sorry, deadline has passed');\r\n        require(msg.value >= minimumContribution, 'Sorry, minimum contribution is not met');\r\n        \r\n        //To increase the no of unique users\r\n        if(contributors[msg.sender] == 0){\r\n            totalContibutors++;\r\n        }\r\n\r\n        contributors[msg.sender] += msg.value; //Adding ammount to contributor's mapping \r\n        raisedAmount += msg.value;  //Adding amount to total fund\r\n    }\r\n\r\n    //Function to check contract balance\r\n    function getContractBalance() public view returns(uint){\r\n        return address(this).balance;\r\n    }\r\n\r\n     //Function to refund the contributor\r\n     function refundEther() public {\r\n         //Refund only when raised amount < target, deadline has crossed & user has contributed something\r\n         require( raisedAmount < target && block.timestamp > deadline ,'You are not eligible for refunding' );\r\n         require(contributors[msg.sender] > 0);\r\n\r\n         address payable user = payable(msg.sender); //Storing address of contributer asking for refund\r\n         user.transfer(contributors[msg.sender]);    //Transfering his all contribution amount to his account\r\n         contributors[msg.sender] = 0;               //After transfering setting his contribution to 0\r\n     }\r\n\r\n\r\n    modifier onlyManager(){\r\n        require(msg.sender == manager, 'Only manager can call this function');\r\n        _; \r\n    } \r\n\r\n    //Function for only managers to create new crowd funding \r\n    function createFundRequest(string memory _cause, address payable _recipient, uint _value ) public onlyManager {\r\n         Request storage newRequest = requests[requestNumber]; // requests[requestNumber] -> maps to the Structure, ex: require[0] -> Request1\r\n         requestNumber++; //Increamenting the total number of crowd fund requests \r\n\r\n        //Filling the data to our Structure\r\n         newRequest.cause = _cause;\r\n         newRequest.recipient = _recipient;\r\n         newRequest.value = _value;\r\n         newRequest.completed = false;\r\n         newRequest.totalVoters = 0;\r\n    }\r\n\r\n    //Funtion for contributors to submit vote request so that manager can withdraw fund \r\n    function voteRequest(uint _requestNumber) public{\r\n        require(contributors[msg.sender] > 0, 'You are not eligile for voting');\r\n        Request storage thisRequest = requests[_requestNumber]; //Points to the particular Request Structure\r\n        \r\n        require(thisRequest.voters[msg.sender] == false, 'You have already voted!');\r\n        thisRequest.voters[msg.sender] = true;\r\n        thisRequest.totalVoters++;\r\n    }\r\n\r\n\r\n    //Function for sending fund amount to the recipient\r\n    function makePaymentToRecipient(uint _requestNumber) public onlyManager{\r\n        require(raisedAmount >= target);\r\n        Request storage thisRequest = requests[_requestNumber]; \r\n\r\n        require(thisRequest.completed == false, 'Recipient has already been paid');\r\n        require(thisRequest.totalVoters > totalContibutors/2, 'Majority support needed'); //More than 50% voting check\r\n        \r\n        thisRequest.recipient.transfer(thisRequest.value);\r\n        thisRequest.completed = true;\r\n    }\r\n\r\n    \r\n\r\n\r\n}\r\n",
  "sourcePath": "C:\\Users\\thera\\Desktop\\crowd\\contracts\\CrowdFunding.sol",
  "compiler": {
    "name": "solc",
    "version": "0.8.10+commit.fc410830.Emscripten.clang"
  },
  "schemaVersion": "3.4.4",
  "updatedAt": "2022-01-30T12:23:00.693Z",
  "networkType": "ethereum",
  "devdoc": {
    "kind": "dev",
    "methods": {},
    "version": 1
  },
  "userdoc": {
    "kind": "user",
    "methods": {},
    "version": 1
  }
}